:100000006F00603D000000004A0100004C0100004C
:1000100000000000000000000000000000000000E0
:1000200000000000000000000000000000000000D0
:10003000D403000000000000D40300000000000012
:10004000D4030000D4030000D4030000D403000054
:10005000D4030000D4030000D4030000D403000044
:10006000D4030000D4030000D4030000D403000034
:10007000D4030000D4030000D4030000D403000024
:10008000D4030000D4030000D4030000D403000014
:10009000D4030000D4030000D403000000000000DB
:1000A000511126C022C206C4828282441244A24058
:1000B000310182802A86014593F6150091C232955E
:1000C00085810606F5F9828000000000634E050276
:1000D00063C305042E86AA857D5515C285466378BF
:1000E000B6006356C00006068606E36CB6FE014500
:1000F00063E4C500918D558D85820582F5FA828075
:100100008682C93F2E8582823305A04063D70500D1
:10011000B305B040C1B7B305B0408682653F330533
:10012000A0408282868263C70500634905005D376F
:100130002E858282B305B040E35B05FE3305A04007
:10014000513F3305B0408282000001A001A0EFF2D0
:100150003FF551118545130500024D269307800395
:100160007C8037150140C1473EC48A858D47130501
:1001700005403EC223110100CD2431013DB7EFF20D
:100180003FF20545B12EDD22492ED137371401400B
:10019000130504400546A1453D2E01469305000385
:1001A000130504400D2E1305401F6526130504405A
:1001B0000546C1450D2601469305800213050440FE
:1001C000192E1305401F712613050440054693059B
:1001D000000211260146E14513050440ED2C1305EC
:1001E000401F852E130504400146A145ED24054618
:1001F0009305000313050440F92C1305401F912EAD
:10020000130504400146C145F924054693058002C3
:1002100013050440C9241305401F252E130504406F
:10022000014693050002452C130504400546E145AF
:100230005D241305401F312E91BFEFF27FE6371486
:1002400002401C403707FFF8611193E717001CC0FC
:100250005C404145F98F5CC01C403707F7FE7D17B5
:10026000F98F1CC01C403707FCFF7D17F98F1CC09D
:100270005C4041777D17F98F5CC0B7079F001CC4B5
:10028000AD241C4C3706020093E707021CCCB717BD
:10029000014003A70740938607401377F7F023A098
:1002A000E74003A707401367070823A0E7408947F3
:1002B0009CCA02C002C21C4C37070140A16693E7EA
:1002C00017001CCC5C43D58F5CC31C404167B7163C
:1002D0000240D98F1CC009679C42F18F3EC2824701
:1002E00085073EC0924781E78247E397E7FEB7174D
:1002F00002409C431397E7006358070685473EC2B8
:10030000124785476310F706B72702409843C17626
:10031000FD16719B98C398431367170098C3B717CE
:100320000240D843D8C3D843758FD8C3D843C166D9
:10033000558FD8C39843B7060001558F98C398438B
:1003400093166700E3DD06FED843B7160240719BA3
:10035000D8C3D84313672700D8C32147DC42B18BE9
:10036000E39EE7FE210191B302C259BFEFF25FD3D2
:10037000371702405C43370400209146B18B1304C9
:1003800004016385D700A1466380D704B7376E01A7
:10039000938707601CC0B7160240DC420840918377
:1003A00013F7F700B707002093870700BA978C234D
:1003B000DC4293F5F50F93F707083357B50099E33F
:1003C000113B2A8718C0D5B15C43B777DC0293870D
:1003D00007C0C9B701A09701002093812144138170
:1003E00081FE1305C058970500209385A5C1170607
:1003F00000201306A6C263FAC5008322050023A0CD
:10040000550011059105E3EAC5FE17050020130507
:10041000E5C0938581806377B50023200500110531
:10042000E36DB5FEB722000093820288739002301C
:100430008D4273904280970200009382A2BC93E2A7
:10044000320073905230EFF05FDF9702000093822A
:1004500042D37390123473002030944593F7060111
:1004600093F2F60081C7DC41B3E2F20083D30500CA
:1004700093F7F30FA5C303230500611122C226C021
:100480008147130480029304800405473316F70064
:1004900033F7C3006312E602939527003D473317F5
:1004A000B7001347F7FF33736700B395B20033E328
:1004B0006500639D860050C985072147E397E7FCE7
:1004C000124423206500824421018280E39696FE37
:1004D00010C9DDB7828019C20CC982804CC98280E4
:1004E000B707002023ACA7008280371702401C43C7
:1004F0000E0593F777F05D8D08C3828099C5371795
:1005000002401C4F5D8D08CF8280B7170240984F84
:100510001345F5FF798D88CF8280EFF27FB8B7075A
:10052000002003A50701B7157A00938505205D36E5
:100530001375F50FB7070020238FA70093175500F9
:10054000898F8A073E950E05B7070020239EA700D6
:10055000A9BEEFF2FFB437F400E05C40AA85F99B36
:100560005CC0B707002003D5C701A93608C82324FB
:1005700004001C4093E717001CC0B7F700E0D84305
:0C058000058B75DF9843799B98C305B686
:10058C000102030405060708010203040506070817
:08059C00006CDC02000000000D
:00000001FF
