:100000006F002035000000004A0100004C01000094
:1000100000000000000000000000000000000000E0
:1000200000000000000000000000000000000000D0
:10003000500300000000000050030000000000001A
:100040005003000050030000500300005003000064
:100050005003000050030000500300005003000054
:100060005003000050030000500300005003000044
:100070005003000050030000500300005003000034
:100080005003000050030000500300005003000024
:100090005003000050030000500300000000000067
:1000A000511126C022C206C4828282441244A24058
:1000B000310182802A86014593F6150091C232955E
:1000C00085810606F5F9828000000000634E050276
:1000D00063C305042E86AA857D5515C285466378BF
:1000E000B6006356C00006068606E36CB6FE014500
:1000F00063E4C500918D558D85820582F5FA828075
:100100008682C93F2E8582823305A04063D70500D1
:10011000B305B040C1B7B305B0408682653F330533
:10012000A0408282868263C70500634905005D376F
:100130002E858282B305B040E35B05FE3305A04007
:10014000513F3305B0408282000001A001A0EFF2D0
:100150003FF55111854513050002392E9307000420
:100160007C8037150140C1473EC48A858D47130501
:1001700005403EC223110100B92C31013DB7EFF219
:100180003FF20545E12C8D223926D1373714014045
:1001900005469305000413050440652C1305401F14
:1001A0003D26130504400146930500045D24130514
:1001B000401F312EE1BFEFF2BFEE371402401C406A
:1001C0003707FFF8611193E717001CC05C404145F9
:1001D000F98F5CC01C403707F7FE7D17F98F1CC0F4
:1001E0001C403707FCFF7D17F98F1CC05C4041772E
:1001F0007D17F98F5CC0B7079F001CC4AD241C4C51
:100200003706020093E707021CCCB717014003A78B
:100210000740938607401377F7F023A0E74003A732
:1002200007401367070823A0E74089479CCA02C01C
:1002300002C21C4C37070140A16693E717001CCC93
:100240005C43D58F5CC31C404167B7160240D98F11
:100250001CC009679C42F18F3EC2824785073EC0A1
:10026000924781E78247E397E7FEB71702409C4336
:100270001397E7006358070685473EC21247854734
:100280006310F706B72702409843C176FD16719BAD
:1002900098C398431367170098C3B7170240D84311
:1002A000D8C3D843758FD8C3D843C166558FD8C338
:1002B0009843B7060001558F98C39843931667007B
:1002C000E3DD06FED843B7160240719BD8C3D8437E
:1002D00013672700D8C32147DC42B18BE39EE7FEBA
:1002E0002101E1B302C259BFEFF29FDB3717024091
:1002F0005C43370400209146B18B130404016385ED
:10030000D700A1466380D704B7376E019387076093
:100310001CC0B7160240DC420840918313F7F70077
:10032000B707002093870700BA978C23DC4293F528
:10033000F50F93F707083357B50099E3613B2A8718
:1003400018C0A5B35C43B777DC02938707C0C9B771
:1003500001A0970100209381614C138181FE130558
:100360008050970500209385E5C9170600201306E5
:10037000E6CA63FAC5008322050023A055001105D3
:100380009105E3EAC5FE17050020130525C99385ED
:1003900081806377B500232005001105E36DB5FE6C
:1003A000B722000093820288739002308D427390CE
:1003B0004280970200009382E2C493E2320073907D
:1003C0005230EFF05FDF97020000938282DB739080
:1003D000123473002030944593F7060193F2F6002F
:1003E00081C7DC41B3E2F20083D3050093F7F30F3A
:1003F000A5C303230500611122C226C0814713044F
:1004000080029304800405473316F70033F7C300D6
:100410006312E602939527003D473317B700134751
:10042000F7FF33736700B395B20033E36500639D54
:10043000860050C985072147E397E7FC1244232033
:100440006500824421018280E39696FE10C9DDB7E3
:10045000828019C20CC982804CC98280B7070020F3
:1004600023ACA7008280371702401C430E0593F788
:1004700077F05D8D08C3828099C5371702401C4F05
:100480005D8D08CF8280B7170240984F1345F5FF66
:10049000798D88CF8280EFF2BFC0B707002003A517
:1004A0000701B7157A00938505202D311375F50FD7
:1004B000B7070020238FA70093175500898F8A075D
:1004C0003E950E05B7070020239EA700F9BEEFF268
:1004D0003FBD37F400E05C40AA85F99B5CC0B707DC
:1004E000002003D5C701F93608C8232404001C40A6
:1004F00093E717001CC0B7F700E0D843058B75DF02
:080500009843799B98C355B69E
:10050800010203040506070801020304050607089B
:08051800006CDC020000000091
:00000001FF
