:100000006F00E037000000004A0100004C010000D2
:1000100000000000000000000000000000000000E0
:1000200000000000000000000000000000000000D0
:100030007C030000000000007C03000000000000C2
:100040007C0300007C0300007C0300007C030000B4
:100050007C0300007C0300007C0300007C030000A4
:100060007C0300007C0300007C0300007C03000094
:100070007C0300007C0300007C0300007C03000084
:100080007C0300007C0300007C0300007C03000074
:100090007C0300007C0300007C03000000000000E3
:1000A000511126C022C206C4828282441244A24058
:1000B000310182802A86014593F6150091C232955E
:1000C00085810606F5F9828000000000634E050276
:1000D00063C305042E86AA857D5515C285466378BF
:1000E000B6006356C00006068606E36CB6FE014500
:1000F00063E4C500918D558D85820582F5FA828075
:100100008682C93F2E8582823305A04063D70500D1
:10011000B305B040C1B7B305B0408682653F330533
:10012000A0408282868263C70500634905005D376F
:100130002E858282B305B040E35B05FE3305A04007
:10014000513F3305B0408282000001A001A0EFF2D0
:100150003FF5511185454145B1263707002013076A
:10016000070036231E238A8537150140D58F562375
:1001700023110100D58F76231A27D58FD98F7C8044
:10018000C1473EC48D473EC2AD2C310139BFEFF2AD
:100190003FF161110545CD2C0144AD2AB704002083
:1001A0000D2675372287914701C7FD566399D70001
:1001B00005041305803E1374F40F8126E5B71396EA
:1001C000170093860400B2968E2213761700371517
:1001D00001403EC23AC06524024792470587FD1799
:1001E000E1B7EFF2FFEB371402401C403707FFF88E
:1001F000611193E717001CC05C404145F98F5CC05A
:100200001C403707F7FE7D17F98F1CC01C403707CD
:10021000FCFF7D17F98F1CC05C4041777D17F98F7B
:100220005CC0B7079F001CC4AD241C4C37060200FD
:1002300093E707021CCCB717014003A7074093863A
:1002400007401377F7F023A0E74003A707401367A1
:10025000070823A0E74089479CCA02C002C21C4C81
:1002600037070140A16693E717001CCC5C43D58F8C
:100270005CC31C404167B7160240D98F1CC0096798
:100280009C42F18F3EC2824785073EC0924781E77C
:100290008247E397E7FEB71702409C431397E700B6
:1002A0006358070685473EC2124785476310F70625
:1002B000B72702409843C176FD16719B98C39843B7
:1002C0001367170098C3B7170240D843D8C3D84361
:1002D000758FD8C3D843C166558FD8C39843B70626
:1002E0000001558F98C3984393166700E3DD06FE1F
:1002F000D843B7160240719BD8C3D8431367270071
:10030000D8C32147DC42B18BE39EE7FE210171BBDC
:1003100002C259BFEFF2DFD8371702405C433704FF
:1003200000209146B18B1304C4016385D700A14618
:100330006380D704B7376E01938707601CC0B71678
:100340000240DC420840918313F7F700B707002012
:100350009387C700BA978C23DC4293F5F50F93F788
:1003600007083357B50099E3B5332A8718C035BB62
:100370005C43B777DC02938707C0C9B701A0970138
:1003800000209381214A138101FE130540539705F4
:100390000020938525C7170600201306A6C863FA18
:1003A000C5008322050023A0550011059105E3EA4D
:1003B000C5FE170500201305E5C693858180637788
:1003C000B500232005001105E36DB5FEB72200003E
:1003D00093820288739002308D427390428097021C
:1003E0000000938222C293E2320073905230EFF009
:1003F0005FDF970200009382C2D9739012347300BA
:100400002030944593F7060193F2F60081C7DC4152
:10041000B3E2F20083D3050093F7F30FA5C30323E0
:100420000500611122C226C0814713048002930493
:10043000800405473316F70033F7C3006312E60262
:10044000939527003D473317B7001347F7FF3373E2
:100450006700B395B20033E36500639D860050C921
:1004600085072147E397E7FC124423206500824477
:1004700021018280E39696FE10C9DDB7828019C201
:100480000CC982804CC98280B707002023A0A70234
:100490008280371702401C430E0593F777F05D8D7D
:1004A00008C3828099C5371702401C4F5D8D08CF65
:1004B0008280B7170240984F1345F5FF798D88CF9A
:1004C0008280EFF2FFBDB707002003A5C701B71573
:1004D0007A0093850520FD3E1375F50FB7070020C0
:1004E0002383A70293175500898F8A073E950E052F
:1004F000B70700202392A7024DBEEFF27FBA37F470
:1005000000E05C40AA85F99B5CC0B707002003D5DA
:1005100047024D3608C8232404001C4093E7170007
:100520001CC0B7F700E0D843058B75DF9843799B73
:0405300098C3A5BE09
:10053400010002000400080010000000010203048E
:10054400050607080102030405060708006CDC021F
:00000001FF
