:100000006F00A03E000000004A0100004C0100000B
:1000100000000000000000000000000000000000E0
:1000200000000000000000000000000000000000D0
:10003000E803000000000000E803000000000000EA
:10004000E8030000E8030000E8030000E803000004
:10005000E8030000E8030000E8030000E8030000F4
:10006000E8030000E8030000E8030000E8030000E4
:10007000E8030000E8030000E8030000E8030000D4
:10008000E8030000E8030000E8030000E8030000C4
:10009000E8030000E8030000E8030000000000009F
:1000A000511126C022C206C4828282441244A24058
:1000B000310182802A86014593F6150091C232955E
:1000C00085810606F5F9828000000000634E050276
:1000D00063C305042E86AA857D5515C285466378BF
:1000E000B6006356C00006068606E36CB6FE014500
:1000F00063E4C500918D558D85820582F5FA828075
:100100008682C93F2E8582823305A04063D70500D1
:10011000B305B040C1B7B305B0408682653F330533
:10012000A0408282868263C70500634905005D376F
:100130002E858282B305B040E35B05FE3305A04007
:10014000513F3305B0408282000001A001A0EFF2D0
:100150003FF5130181FD85451305100202C602C853
:1001600002CA02CC02CE02D002D202C002C22314C2
:100170000100A129854505458529370518008545D4
:10018000130505309D26930700047C863715014032
:10019000E1473ECA6C008D47130505403EC8C12C9F
:1001A0009307803E8A85370500403EC202C0A129E0
:1001B000C167938707073ECC2C0893078027370534
:1001C0000040FC872310010271218545370500405E
:1001D000052B854537050040012B13018102F1B540
:1001E000EFF21FEC0545E12637040020512A3523A4
:1001F000B93F9307A401B704002023900700938719
:100200008401238007001304A401938484019820AF
:10021000D9571377F70F11E3A9471A203705004084
:10022000BA97C207C1831EA00E20F5211A2093069B
:10023000803E85476387E6001E20C207C18393B7CF
:10024000170098203D45B98F9CA00123C9B7EFF254
:100250003FE5371402401C403707FFF8611193E770
:1002600017001CC05C404145F98F5CC01C4037073B
:10027000F7FE7D17F98F1CC01C403707FCFF7D1768
:10028000F98F1CC05C4041777D17F98F5CC0B707C0
:100290009F001CC415261C4C3706020093E707027A
:1002A0001CCCB717014003A707409386074013777C
:1002B000F7F023A0E74003A707401367070823A030
:1002C000E74089479CCA02C002C21C4C3707014064
:1002D000A16693E717001CCC5C43D58F5CC31C4020
:1002E0004167B7160240D98F1CC009679C42F18F45
:1002F0003EC2824785073EC0924781E78247E39727
:10030000E7FEB71702409C431397E70063580706C0
:1003100085473EC2124785476310F706B72702405C
:100320009843C176FD16719B98C3984313671700D5
:1003300098C3B7170240D843D8C3D843758FD8C3E2
:10034000D843C166558FD8C39843B7060001558F6F
:1003500098C3984393166700E3DD06FED843B716AB
:100360000240719BD8C3D84313672700D8C32147E5
:10037000DC42B18BE39EE7FE210105BB02C259BFFF
:10038000EFF21FD2371702405C433704002091463A
:10039000B18B130404016385D700A1466380D704A1
:1003A000B7376E01938707601CC0B7160240DC4266
:1003B0000840918313F7F700B707002093870700E1
:1003C000BA978C23DC4293F5F50F93F70708335760
:1003D000B50099E301332A8718C0C1B95C43B777E8
:1003E000DC02938707C0C9B701A097010020938161
:1003F000E142138181FE1305007897050020938563
:1004000065C017060020130666C163FAC500832283
:10041000050023A0550011059105E3EAC5FE170567
:1004200000201305A5BF9385C1806377B500232005
:1004300005001105E36DB5FEB72200009382028826
:10044000739002308D427390428097020000938235
:1004500062BB93E2320073905230EFF05FDF97029D
:100460000000938222D87390123473002030944598
:1004700093F7060193F2F60081C7DC41B3E2F20084
:1004800083D3050093F7F30FA5C303230500611180
:1004900022C226C0814713048002930480040547CA
:1004A0003316F70033F7C3006312E6029395270073
:1004B0003D473317B7001347F7FF33736700B39512
:1004C000B20033E36500639D860050C9850721476C
:1004D000E397E7FC124423206500824421018280D7
:1004E000E39696FE10C9DDB78280370301400327EB
:1004F00043009317350063D00702B707C0FFF51715
:10050000F98F37070007D98FD9CD370700F07D174E
:10051000798DC98F49A8635D0500B707E0FFED1726
:10052000F98F37070007D98FBDCD06050581D5B7EF
:10053000B7073000931605013376F500C1826313C7
:10054000F602370600F97D16B377C700032743008C
:10055000798E2322C300A1C9558113174500339515
:10056000E60045BF9317B50063D407029357050112
:1005700013F6F7008D47B397C70093C7F7FFF98FBE
:1005800037070007D98F85C1135755011207C1BF1F
:10059000558112053395A6009347F5FFF98F37076C
:1005A0000007D98FBDF5370701405CC38280B707CC
:1005B000002023AEA7008280371702401C430E059F
:1005C00093F777F05D8D08C3828099C53717024095
:1005D0001C4F5D8D08CF8280B7170240984F13459E
:1005E000F5FF798D88CF828099C5371702405C4F1F
:1005F0005D8D48CF8280B7170240D84F1345F5FF75
:10060000798DC8CF82801E2137370140130707C07C
:10061000C207C1836306E500370700406316E500A3
:10062000BA2193F7F7F8D98FFA2193F7F7CFC207DA
:10063000C183D98F1EA1DE215EB59E211EB5B737BD
:100640000140938707C06314F5009C251EB98547B8
:100650005EA982801E31922103D38500C207C18327
:1006600093F7F7EFC207C1831EB11E3156215A2DF1
:10067000C207C183420741831377C7F8518FB22164
:1006800093F7F7DFC206336666002206D18F139612
:100690000701B7370140938707C0C1824182631FBA
:1006A000F502FD779387F77FF18FB22503D3C5005D
:1006B0002206D18FD221C207C183220693F7F7BF4A
:1006C000D18F13960701F577FD17FD8EFE25418228
:1006D000B3E767009207DD8EC206C182FE2156A1F4
:1006E0005AAD5CDD12B182801E2189C593E71700E7
:1006F0001EA18280C207C183F99BC207C183CDBFFF
:100700008357450491C52167D98F2312F504828050
:10071000C607C583DDBF4CDD8280EFF27F98B70747
:10072000002003A50701B7157A00938505205D32E7
:100730001375F50F2385A18093175500898F8A07BC
:100740003E950E052394A1808DB2EFF27F9537F48C
:1007500000E05C40AA85F99B5CC003D58180993A92
:1007600008C8232404001C4093E717001CC0B7F7F7
:1007700000E0D843058B75DF9843799B98C335B269
:100780000102030405060708010203040506070821
:08079000006CDC020000000017
:00000001FF
